:020000040000FA
:100000000A128A11F32FFF1B0D2883137F18831701
:100010000008840A0319FF0A080000308A00040857
:10002000840A82070034013400340A340034643412
:100030000034E8340334103427343C3476346134EB
:100040006C343E340A3409344C34653466347434C8
:100050003A34253464342034523469346734683493
:1000600074343A34253464340A343C342F347634CE
:1000700061346C343E340A3400343C3476346134B8
:100080006C343E340A340934543465346D3470347D
:100090003A34253464340A343C342F3476346134B1
:1000A0006C343E340A3400343C34773472346E3469
:1000B0003E340A3409344534723472346F34723445
:1000C000203431340A343C342F34773472346E3473
:1000D0003E340A3400343C34773472346E343E3467
:1000E0000A3409344534723472346F347234203433
:1000F00032340A343C342F34773472346E343E3424
:100100000A3400343C346D346F3474343E340A3471
:100110000934533474346F34703470346534643457
:100120000A343C342F346D346F3474343E340A3422
:1001300000343C346D346F3474343E340A34093442
:10014000523469346734683474340A343C342F349C
:100150006D346F3474343E340A3400343C346D34BE
:100160006F3474343E340A3409344C3465346634A4
:1001700074340A343C342F346D346F3474343E3468
:100180000A3400343C34613463346B343E340A3412
:100190003C342F34613463346B343E340A340034DD
:1001A0003C346D346F3464343E3400343C346C344D
:1001B00069346D343E3400343C34733465346E3409
:1001C0003E3400343C346D3469346E343E34003493
:1001D0003C346D346F346E343E3400343C3474340B
:1001E0006D3470343E3400343C346D3478347434BF
:1001F0003E3400343C342F34003483120313A20005
:100200000A128A1501260A128A1183120313220880
:10021000840083130008A000840A0008A1002008BD
:1002200021040319142915292A2922088400800190
:10023000840A8001220884000008F800840A00086B
:10024000F9007D08FB007C08FA000A128A15D42602
:100250000A128A110800F9006029790884008313C2
:1002600000080319342935294529740884000A1225
:100270008A110D200A128A11F700790884000008FB
:1002800077060319442945295829740884000A125D
:100290008A110D200A128A11F700790884000008DB
:1002A000F80077087802F400F501031CF5037029C3
:1002B0000130F7007708F9070130F7007708F407F5
:1002C0000130F5020030031CF603F602750A031D27
:1002D0006D29760A031D6D296E292D29F401F5017A
:1002E0000800F6007008840083130008F100840AF7
:1002F0000008F20083120313060CF300F30C730CD6
:100300000139F400F50172087506031D8929710889
:10031000740603198C298D29B929060CF100F10CFA
:10032000710C0139F200F30170088400720880003A
:10033000840A7308800086199E299F29B9297608A6
:1003400084000008F100840A0008F20071087204B9
:100350000319AB29AC29B229760884008001840AEC
:100360008001B9297608840001308000840A0030B9
:100370008000080083120313A000FE297A08FB0006
:100380007B08F4007A08F0000030031D8030F10093
:100390000A128A158B260A128A117108F600700853
:1003A000F5008312031320080A128A112B210A1266
:1003B0008A1174087504031DDE29DF29E3298312DD
:1003C000031320080C2A7A0884000A128A110D20CF
:1003D0000A128A11FB00FC017B08F0007C08F10086
:1003E000831203132008013E0A128A153C260A12C2
:1003F0008A11FD007D0883120313A0002008031951
:10040000022A032A0B2A2008840083130008031DF4
:100410000A2A0B2ABE290030080083120313A40005
:10042000A201A301A001A101402A20082407F8008D
:10043000780884002308F1002208F0000A30F20056
:100440000030F3000A128A15AF260A128A118313AC
:1004500000087007F9000030031801307107FA0036
:100460007908D03E83120313A2007A080318013ED4
:10047000FF3EA3000130A0070318A10A0030A10726
:100480002408F0000030F1000A128A158B260A12A7
:100490008A117008FF3EF80071080318013EFF3E04
:1004A000F9007908831203132102031D592A7808E1
:1004B0002002031C5C2A5D2A152A2308F700220863
:1004C000F60008008030831603139F008F2A8130C6
:1004D000831203139F00AE2A8930831203139F00F7
:1004E000AE2A9130831203139F00AE2A99308312F3
:1004F00003139F00AE2AA130831203139F00AE2A7C
:10050000A930831203139F00AE2AB1308312031364
:100510009F00AE2AB930831203139F00AE2A7108E0
:10052000003A0319942AAE2A7008003A0319672A80
:10053000013A03196C2A033A0319712A013A031983
:10054000762A073A03197B2A013A0319802A033ACB
:100550000319852A013A03198A2AAE2A83121F1524
:100560001F19B32AB42AB02A1E08F10083160313F8
:100570001E08F0000800F7007708840083130008C5
:10058000F200840A0008F30083120313060CF4003F
:10059000F40C740C0139F500F60173087606031D9E
:1005A000D32A72087506031DD62AD72AEE2A7008A8
:1005B00084000008F200840A0008F3007208013E7B
:1005C000F40073080318013E003EF5007008840033
:1005D00074088000840A75088000F32A700884007B
:1005E0008001840A8001060CF200F20C720C0139C1
:1005F000F300F4017708840073088000840A74080B
:100600008000700884000008F200840A0008F300EB
:100610000A3072067304031D0E2B0F2B192B700862
:1006200084008001840A80010130F0000030F10074
:100630001B2BF001F1010800831203132108803AFB
:10064000AB002508803A2B02031D282B240820022A
:1006500003182B2B2C2B672B831203132308803AB0
:10066000AB002508803A2B02031D382B24082202F8
:1006700003183B2B3C2B672B0A128A1501260A1202
:100680008A11831203132808840083130008AB0027
:10069000840A0008AC002B082C040319502B512BA2
:1006A000E82B280884008001840A8001280884003F
:1006B0000008F800840A0008F9002A08FB0029084D
:1006C000FA000A128A15D4260A128A11E82B83121C
:1006D000031320082202AB002108031C210A230275
:1006E000AC002708803AAD002C08803A2D02031D8B
:1006F0007B2B2B08260203187E2B7F2B9C2B0A12A8
:100700008A15FB250A128A11831203132808840014
:1007100083130008AB00840A0008AC002B032C04F0
:100720000319932B942BE82B2808840001308000B8
:10073000840A00308000562B831203132208200203
:10074000AB002308031C230A2102AC002708803ACF
:10075000AD002C08803A2D02031DB02B2B08260279
:100760000318B32BB42BD22B0A128A15F5250A12C3
:100770008A11831203132808840083130008AB0036
:10078000840A0008AC0002302B062C040319C92B84
:10079000CA2BE82B2808840002308000840A00302D
:1007A0008000562B0A128A1501260A128A1183121A
:1007B00003132808840083130008AB00840A000890
:1007C000AC002B082C040319E62BE72BE82B512B4C
:1007D000080083120313AD002130A5002508A800EE
:1007E000BA2C25302E060319F62BF72B032C2E08D6
:1007F000A5002D0884002508831380000130A50082
:100800002508AD07BA2CA9010130A007FF30200749
:1008100084000A128A110D200A128A11AE00A50066
:10082000A6012608003A0319162CBA2C2508003A0E
:100830000319CC2C643A0319212C0D3A0319212CED
:10084000BA2C2808840083130008AB00840A00082F
:10085000AC000230A5002508A807AC1F302C312CB5
:100860003A2C0330A5002508A904AB09AC09AB0A52
:100870000319AC0AAE01AE0A2E08A5002507013EF9
:1008800084000A128A110D200A128A11A6000A1287
:100890008A110D200A128A11A70027082C02031DB5
:1008A000532C26082B020318562C572C582C622C3C
:1008B0000130A5002508AE0705302E06031D612C6A
:1008C000622C3C2C290803390319672C682C732CE3
:1008D0002D30A5002D0884002508831380000130E9
:1008E000A5002508AD072E08A5002508AA00B12CF3
:1008F0000A30F8000030F9002A08A5002507013E5B
:1009000084000A128A110D200A128A11F0000A12BC
:100910008A110D200A128A11F1002C08F3002B080D
:10092000F2000A128A15BC270A128A117108FB000C
:100930007008FA000A128A1540270A128A117808EC
:10094000303E83120313A6002608AE002E08A50031
:100950002D0884002508831380000130A500250898
:10096000AD07FF30A5002508AA072A0A031DB92CE8
:10097000BA2C782C0130A007FF30200784000A121F
:100980008A110D200A128A11A5002508AE002E0832
:10099000031DCB2CCC2CF12B2D088400831380015C
:1009A0000800831603138615081088100811881193
:1009B0008701A03084002830FF0083138001840A5F
:1009C000FF0BDD2C0130C8000030C9000130CA0027
:1009D0000030CB00DA01DB01D401D501C830CC00F6
:1009E0000030CD00C830CE000030CF000130D6003E
:1009F0000030D700C830D0000030D100D801D90174
:100A0000DC01DD01D201D3010A128A152F260A1258
:100A10008A11831203138C1E0E2D0F2D392DA03039
:100A20000A128A150A270A128A11CE30831203137A
:100A3000D4005408C800CC30D5005508C900D830BF
:100A4000D6005608CA00D630D7005708CB00D030A1
:100A5000D8005808CC00D230D9005908CD00DC307D
:100A6000DA005A08CE00A0300A128A11E6250A12CE
:100A70008A110230F0000030F1000A128A1162225D
:100A80000A128A11831603135108803A8312031342
:100A9000D4007108803A5402031D522D7008831649
:100AA000031350020318552D562D5D2D013083166A
:100AB0000313D8000030D9007B2DD43083120313E8
:100AC000D4005408F000C8300A128A11BB220A125E
:100AD0008A117008710403196E2D6F2D7B2DCA3099
:100AE00083120313D4005408F000D8300A128A117C
:100AF00071210A128A118316031358085904031925
:100B0000822D832D942D83120313081088148316CD
:100B100003135708FD005608FC00DA300A128A1148
:100B2000FD200A128A11092D83120313081488105C
:100B30000030F000F1000A128A1162220A128A11B2
:100B4000710883120313A1007008A0000130F000A7
:100B50000030F1000A128A1162220A128A11710809
:100B600083120313A3007008A200831603134D0819
:100B700083120313A500831603134C088312031377
:100B8000A400831603134F0883120313A7008316D0
:100B900003134E0883120313A600DA30D40054085E
:100BA000A80083160313570883120313AA008316A1
:100BB0000313560883120313A9000A128A111C2377
:100BC0000A128A11092D0A128A11002883120313AE
:100BD000D3004E08840083130008CF00840A000865
:100BE000D0004F085004031DF62DF72DCB2EC43036
:100BF000CF004F08FA0053080A128A11BA210A12CC
:100C00008A11003A0319052E062E112E83120313A2
:100C10004E088400013083138000840A0030800075
:100C2000F22FD03083120313CF004F08FA0053087D
:100C30000A128A11BA210A128A11003A0319212EC6
:100C4000222E2D2E831203134E08840002308313AC
:100C50008000840A00308000F22FBE30831203131C
:100C6000CF004F08FA0053080A128A11BA210A125B
:100C70008A11003A03193D2E3E2E492E831203138A
:100C80004E088400033083138000840A0030800003
:100C9000F22FD63083120313CF004F08FA00530807
:100CA0000A128A11BA210A128A11003A0319592E1E
:100CB0005A2E652E831203134E08840004308313CA
:100CC0008000840A00308000F22FCA3083120313A0
:100CD000CF004F08FA0053080A128A11BA210A12EB
:100CE0008A11003A0319752E762E812E8312031372
:100CF0004E088400053083138000840A0030800091
:100D0000F22FDC3083120313CF004F08FA00530890
:100D10000A128A11BA210A128A11003A0319912E75
:100D2000922E9D2E831203134E08840006308313E7
:100D30008000840A00308000F22FE2308312031317
:100D4000CF004F08FA0053080A128A11BA210A127A
:100D50008A11003A0319AD2EAE2EB92E8312031359
:100D60004E088400073083138000840A003080001E
:100D7000F22F831203134E08840083138001840A28
:100D800080014230F1008030F2000A128A157A2781
:100D90000A128A11F22FE830CF004F08FA005308E8
:100DA0000A128A11BA210A128A11003A0319D92E9D
:100DB000DA2EE02FBA2F4D0884000008CF00840AF5
:100DC0000008D000480884004F088000840A5008BA
:100DD00080004E0884008001840A80010A128A156E
:100DE00019260A128A11F22F4D0884000008CF003C
:100DF000840A0008D000490884004F088000840A53
:100E0000500880004E0884008001840A8001EE2E84
:100E10004D0884000008D100840A0008D200510364
:100E200052040319142F152F1B2F51085204031DB0
:100E30001A2F1B2F282F4A08840051088000840A8B
:100E4000520880000A128A1519260A128A11312FB7
:100E50005930F1008030F2000A128A157A270A12FE
:100E60008A11831203134E08840083138001840ABD
:100E70008001F22F4D0884000008D100840A000888
:100E8000D200510352040319462F472F4D2F51080A
:100E90005204031D4C2F4D2F552F4B088400510831
:100EA0008000840A52088000222F5930F1008030DF
:100EB000F2000A128A157A270A128A11312F4E0877
:100EC00084008001840A80010030F000F1000A12E1
:100ED0008A1162220A128A11710883120313B00068
:100EE0007008AF000130F0000030F1000A128A11E2
:100EF00062220A128A11710883120313B200700869
:100F0000B1000A128A156D260A128A11F22F0230D8
:100F1000F0000030F1000A128A1162220A128A11CE
:100F2000710883120313B0007008AF000A128A150B
:100F300053260A128A11312F4D0884000008CF0071
:100F4000840A0008D0004C0884004F088000840AFE
:100F5000500880004E0884008001840A8001F22F2E
:100F60004230F1008030F2000A128A157A270A1204
:100F70008A11F22F831203134E0884008313000892
:100F8000CF00840A0008D0005008003A0319C92F86
:100F9000B02F4F08013A0319DB2E033A0319F42E40
:100FA000013A0319082F073A03193A2F013A031996
:100FB0005F2F033A0319872F013A03199C2FB02F93
:100FC0008312031353080A128A110D220A128A117E
:100FD000831203134D088400760883138000840A6B
:100FE000770880000800831790308400B8300A1218
:100FF0008A1507260A128A1183010A128A11D12C36
:101BEA00831203138716081188150800831203133A
:101BFA008716081588110800831203138712081123
:101C0A008811080064008001840A0406031900345C
:101C1A000406082EF00070088312031399000C1EA4
:101C2A00172E182E142E0800B030F1008030F20062
:101C3A000A128A157A270A128A15080083120313D0
:101C4A008C1E282E292E232E1A08F0007008F10067
:101C5A00710808008312031398011816981783163F
:101C6A000313980198161815193099000800F20004
:101C7A0072088400831300087006031D452E462E41
:101C8A00482E7208522E720884000130F2070008AA
:101C9A00031D502E512E3D2E003008002B3083128A
:101CAA000313B1003108A0003008A2002F08A100D8
:101CBA0032300A128A11E9230A128A153230F100E7
:101CCA000030F2000A128A157A270A128A150800C9
:101CDA000B3083120313B3003308A0003008A200AC
:101CEA002F08A1003208A4003108A30034300A12D8
:101CFA008A11E9230A128A153430F1000030F20001
:101D0A000A128A157A270A128A1508007008F20040
:101D1A007108F300962E0130F2070318F30A003017
:101D2A00F307730883120313FF00720884000A1270
:101D3A008A1103200A128A15003A031DA52EA62E1F
:101D4A00902E70087202F0007108031C710A730267
:101D5A00F1000800F401F501701CB42EB52EBB2E5B
:101D6A007208F4070318F50A7308F507013003101F
:101D7A00F20DF30DFF3E031DBC2E01300310F10CD2
:101D8A00F00CFF3E031DC32E70087104031DCE2EF6
:101D9A00CF2EB12E7508F1007408F00008007A08F9
:101DAA007B040319D92EDA2E092FF92E7030F1008F
:101DBA008030F2000A128A157A270A128A15092F28
:101DCA008730F1008030F2000A128A157A270A1247
:101DDA008A15092F9C30F1008030F2000A128A1508
:101DEA007A270A128A15092F7908003A0319FE2E52
:101DFA00092F7808003A0319DB2E013A0319E52E58
:101E0A00033A0319EF2E092F0800F800F601F7012B
:101E1A000130F4000030F500392F0A128A15232602
:101E2A000A128A15F20076087807F300730884000C
:101E3A0072088313800076087807F200720884001B
:101E4A000A300006031D2A2F2B2F332FF401F50128
:101E5A0076087807F200720A840080010130F607DA
:101E6A000318F70A0030F70774087504031D3E2F9C
:101E7A003F2F122F0800780879040319452F462F9F
:101E8A00752FFD01FD0A542F01300310F80DF90DCD
:101E9A00FF3E031D4A2F0130FC007C08FD07F91F95
:101EAA00572F582F492F79087B02031D5E2F780878
:101EBA007A02031C612F622F682F7808FA027908C8
:101ECA00031CFB03FB0201300310F90CF80CFF3E64
:101EDA00031D692F0130FD02031D742F752F582F22
:101EEA007B08F9007A08F8000800F601F7019F2F2D
:101EFA0076087107F4007208F3000318F30AF61F54
:101F0A00872FF3037308F500750883120313FF0084
:101F1A00740884000A128A1103200A128A150A1206
:101F2A008A150F260A128A150130F6070318F70ACE
:101F3A000030F70776087107F4007208F3000318F7
:101F4A00F30AF61FA92FF3037308F5007508831225
:101F5A000313FF00740884000A128A1103200A126C
:101F6A008A15003A031DBA2FBB2F7D2F0800F501F1
:101F7A00F601700871040319C32FC42FFB2FF70150
:101F8A00F70AD22F01300310F00DF10DFF3E031DA9
:101F9A00C82F0130F4007408F707F11FD52FD62F88
:101FAA00C72F01300310F50DF60DFF3E031DD72F85
:101FBA0071087302031DE32F70087202031CE62FD7
:101FCA00E72FEE2F7008F2027108031CF303F302E5
:101FDA00751401300310F10CF00CFF3E031DEF2FB6
:101FEA000130F702031DFA2FFB2FD62F7608F100D6
:061FFA007508F00008006C
:02400E003A3F37
:00000001FF
