:020000040000fa
:080000000402040000000000ee
:020000040000fa
:100400009202040000000000cf832000807f2200c1
:100410000001880000000000050007000c00070034
:10042000c8110200000000000040da000000fe00d9
:100430004440a900002020000000e000030032003a
:1004400000002000a00188004440a8000000060031
:10045000c03e21000100200016003700620040006d
:10046000e0804800910188009001ba0062004000dd
:10047000e0804800910188009002ba0062004000cc
:10048000e08048000002eb006028e10005003a002f
:100490008301e90007003300038009000059eb00e5
:1004a000040037006128e100010032000082eb0007
:1004b00005000700910188001001ba000200e00069
:1004c000e6ff3a00000005009101880080027800f4
:1004d00062004000e08048003559ba008301e9001d
:1004e000080032002559ba008301e90005003200f6
:1004f0000400e000f4ff320015d9ba008301e900de
:10050000f1ff3a000000060080007800010037008b
:100510000000e8001004e000fdff3a000100500078
:1005200000000600881f7800020478002a000700f7
:10053000080040004f047800000006000000fa00a8
:10054000881f7800000478003fb99700ea815700bf
:100550008000780020292000280007008000780013
:100560000000e000020035000040eb0080707c00dd
:10057000010078004f0478000080fa0000000600b7
:10058000889fbe0001047800914478001104e000c7
:100590000b003a000e003700000178008800780058
:1005a0008100e800914178001104e0000800320069
:1005b0000201e80092cf1100f9ff32000000e800cc
:1005c0008900fb00c50007000000e000f2ff3a00d0
:1005d0004f04be0000000600000278008001780091
:1005e00001003700b159780002004200808f5100ad
:1005f000fcff3a0004007800000006006200fa00e8
:10060000889fbe008a9fbe000004be0002057800dd
:100610008300780060f92f000f004000b70007004a
:1006200088979f0099979f000000eb00a09f9f0074
:100630009a4578000b80fb000000ea00cf04de0042
:100640000904e90050c2b30080cf55000100320018
:10065000090478000800e0000b003400080178006d
:100660008a0078001f9097008f9197000300010087
:1006700090979f000000e000930032002f989700b1
:1006800008004000a09f9f000905450050c2b3002c
:1006900080cf5500040032000b04e000e4ff3a0074
:1006a0002f989700890037000000eb00809f9f0083
:1006b000f0979f00e0979f00d0979f00c0979f0002
:1006c000b0979f00c09f9f0009003700e082200084
:1006d000008050000000400021822000e08078006f
:1006e0004f98970001007000c09f9f000a05e80026
:1006f0001a4478008800fb00e082200077000700a1
:10070000800078000000e000f0ff3a00a0c2b300d3
:10071000804f54000e003a00bf8897000180e90026
:10072000b08f9f0090007800b19f9f000100e00013
:1007300005003d000100ea00b09f9f004f98970020
:100740000020a000c09f9f000a05e80010003700ad
:10075000b19f9f0009003700bf989700f0ff270066
:10076000808f5000040032006a08b9000000410088
:1007700003004000b09f9f000a05e8001a01fb003b
:1007800003fd2f0003004100e90f5000f2ff360087
:10079000e0c2b3009a4f1000040032000080eb006a
:1007a000909f9f008a0478001c0037008a04e800ac
:1007b000a0c2b300994f100007003a00bf8897000d
:1007c0000180e900b08f9f0010007800909f9f008b
:1007d0008a84e800110037000000eb00909f9f0022
:1007e000090037009f989700f0ff2700808f500086
:1007f000040032006a08b900000041000300400014
:10080000909f9f008904e8001901fb0003fd2f0061
:1008100003004100e90f5000f2ff36001944780050
:100820008800fb00408320002c0007000000e0004f
:1008300002003a0000447800010037008904e80013
:10084000a87f9f0080c6b300804f540004003a0088
:1008500066405000994f140007003200080037002e
:10086000c0c6b300804f540005003a00994f1400f1
:1008700003003a0065404000a07f9f008904e80023
:100880000905e800c8fb2f000f04440060f92f00a1
:100890000f0040008085e800880178001901fb0006
:1008a000800078000b007800190007000000e000cd
:1008b00005003a00880078000b0078005e01070010
:1008c0000000e0005aff3d000080eb004f05be0035
:1008d0004f04be000080fa0000000600040037004c
:1008e0001004e00001003a00000005000000e800ec
:1008f00090cf1000faff3a00000006000200fa0054
:10090000f1bf9f00010878000080fa000000060097
:10091000889fbe008a1f78000004780001027800da
:100920008244780003057800e0c6b300804f510090
:10093000d700320015003c006b405000804f510042
:10094000240032000a003c0070405000804f5100eb
:100950001401320065404000804f510076003200a3
:1009600050c2b300804f510027013a0023013700e5
:1009700040c6b300804f51001b003200654040006c
:10098000804f510020013a001700370030c7b300f4
:10099000804f51000301320007003c0064405000ca
:1009a000804f5100640032000040e800804f510049
:1009b00015013a00ec00370050c7b300804f5100da
:1009c0005d00320063404000804f51000e013a004c
:1009d000590037009180e900010a78007800900002
:1009e00011f079000e01370028619000c0c6b300f5
:1009f000804f51000a003a00140078006401500052
:100a0000020a78001200be004f88de00cf80de00b0
:100a10001202be0000037800800378001500370042
:100a200010c7b300804f510002003a0094007800d4
:100a30000400370094007800a0c6b300804f510036
:100a400005003a0068805000000a78003002be00bd
:100a50002003be00070037000180e900000a78008b
:100a60001000780000027800cfa2de0005037800b5
:100a700086037800049cbe000694be00a860900027
:100a800080c6b30080cf50000e00320020c6b300f5
:100a900080cf500005003a000400fb00cf80de004c
:100aa00001017800820178000a00370040c7b300d6
:100ab00080cf5000030032006640400080cf5000dd
:100ac00006003a0004007800cf80de0001017800c3
:100ad00082017800009cbe000294be003800be0077
:100ae0002801be00e00f5000e08f5800e00f5900d1
:100af000e08f590003003d0078009000d1c2b300a0
:100b00000a003700081090000018a300030032000c
:100b100078009000b1c2b300040037000008a300c1
:100b2000560032007800900001c2b30001707d00d1
:100b30000000e8005000370028619000c0c6b300f4
:100b4000804f510007003a00940078006480500004
:100b5000000a78001002be000003eb008603780054
:100b60001500370010c7b300804f510002003a0053
:100b7000940078000400370094007800a0c6b30009
:100b8000804f510005003a0068805000000a78004c
:100b90003002be002003be00070037000180e900dc
:100ba000000a78001000780000027800050020009c
:100bb0000600200007002000049cbe000694be0032
:100bc000a860900080c6b30080cf50000e003200b5
:100bd00020c6b30080cf500005003a000480fb001f
:100be0000100200002002000030020000a0037005e
:100bf00040c7b30080cf5000030032006640400081
:100c000080cf500006003a00040078000100200068
:100c10000200200003002000009cbe000294be00e1
:100c2000081090000038a300140032003800be0005
:100c30002801be00e00f5000e08f5800e00f59007f
:100c4000e08f59000d00320080c7b30080cf540000
:100c50000300320080c5b30080cf540007003a0083
:100c60007800900001c3b30001707d008000e800af
:100c700089707d000080e800700498007800900082
:100c80000000450060049800894078004200370069
:100c9000a8609000c0c6b30080cf5000250032008d
:100ca0000a003c006440500080cf50002800320011
:100cb00000c0e80080cf50001400320068405000af
:100cc00080cf500022003a000a00370040c7b3002e
:100cd00080cf50001e0032006640400080cf5000a0
:100ce0001b0032006940500080cf500018003a00cd
:100cf000060037001480e900000a78001000780030
:100d0000485c900008487800470037001480e900ec
:100d1000000a78001002780068089000cf80de009a
:100d20000101780082017800009abe000292be00a4
:100d30003d0037001480e900000a780010017800b7
:100d400068089000cf80de000089be0036003700c2
:100d50001480e900000a780010007800680c900008
:100d600008087800300037001180e900800878001a
:100d700010007800cf80de00010178008201780049
:100d8000009cbe000294be00780090000000450068
:100d90006004980081c7b30008007800f0000700e5
:100da000210037001480e900000a780090017800e3
:100db00063049800580990000200e00003003d0021
:100dc00003007800d0fd07000a0037008000eb0028
:100dd0000300780095010700800078000000e00023
:100de00003003200680090000080500001003700ce
:100df00058089000100c98000b0037007800900005
:100e000002707d00060037007800900080004500e9
:100e10000904e00001003a0059c2b3008948780093
:100e20000000e800700498000000eb004f05780017
:100e30004f04be00000006000400fa00889fbe00b8
:100e40008a9fbe008c1f780000047800010678009d
:100e500070089000f8009000010050008808900091
:100e6000010050009808900001005000a808900070
:100e700001005000b808900001005000c808900020
:100e80008105500000022200a0bf9f000003230044
:100e900090bf9f00081090000028a30018003a009f
:100ea0000b00e000160034008b0478000905780080
:100eb000e28f5400020036002a00200002003700b2
:100ec0000900e0000b003400c80190000a0178001e
:100ed000ec80570058009000030001005004980077
:100ee0000000e00096003200680890000a00400010
:100ef000600c98008a8454004240a900ebff3c003b
:100f0000780190000200e0000b003400c80190005e
:100f10008c007800580090000300010050049800f5
:100f20000000e0008600320068089000f8009000a1
:100f300001004000600c9800880c90000900e0005f
:100f40001500340009057800e28f540002003600d5
:100f50002a002000020037000900e0000b003400e6
:100f6000c80190000a017800ee80570058009000f8
:100f700003000100500498000000e00070003200ff
:100f8000680890000a004000600c98008a845400b1
:100f90004240a900ebff3c00180990000200e0006d
:100fa0000b003400c8019000e80090005800900049
:100fb00003000100500498000000e00060003200cf
:100fc000680890009808900001004000600c9800ac
:100fd000a80c90000900e000150034000905780015
:100fe000e28f5400020036002a0020000200370081
:100ff0000900e0000b003400c80190000a017800ed
:10100000ee80570058009000030001005004980043
:101010000000e0004a003200680890000a0040002a
:10102000600c98008a8454004240a900ebff3c0009
:10103000380990000200e0000d003400e800900044
:101040001808900080804000c8019000580090006f
:1010500003000100500498000000e0003800320056
:1010600068089000b808900001004000600c9800eb
:10107000c80c90000900e000150034000905780054
:10108000e28f5400020036002a00200002003700e0
:101090000900e0000b003400c80190000a0178004c
:1010a000ee805700580090000300010050049800a3
:1010b0000000e00022003200680890000a004000b2
:1010c000600c98008a8454004240a900ebff3c0069
:1010d000081090000028a3001b0032000b00e00065
:1010e000190034008b04780009057800e28f540061
:1010f000020036002a002000020037000900e0004c
:101100000b003400c80190000a017800ec80570001
:101110005800900003000100500498000000e00017
:1011200007003200680890000a004000600c980038
:101130008a8454004240a90003003400eaff3700cb
:101140000080eb00010037000000eb004f06780044
:101150004f05be004f04be000080fa0000000600ec
:101160006f02b000889fbe008a9fbe008c9fbe00a9
:101170008e1f7800000678001081200080bf9f003d
:1011800080c5b30080cf50000700320082002000ed
:10119000f2b79f000380200083bf9f00774040008c
:1011a00080cf50000a00320080c7b30080cf5000cb
:1011b00005003200a4002000f4b79f0080c5b300f2
:1011c00080cf500002003a0000012000f0b79f00dd
:1011d0003c04be002c05be0040c6b30080cf5000ca
:1011e000030032006540400080cf50000b003a0001
:1011f000e00f5400e08f5c00e00f5d00e08f5d00c9
:1012000006003d006000b8006011b80008045000fe
:10121000898458000a0559008b855900e00f540055
:10122000e08f5c00e00f5d00e08f5d0004003a009d
:101230005c0890008d0120000000e0000c003200ee
:10124000ffb0970001027800cfa2de00050378000e
:10125000860378000800be000a01be0008010700ee
:101260000fba970064407800d0e79f007d0120000e
:101270007fb0970000027800cfa2de00050378005f
:10128000860378000800be000a01be00f5000700d2
:10129000009ebe000296be000d00e900e1fc2f009a
:1012a0008f804000008740001a0037007fb1970010
:1012b00002027800cfa2de000503780086037800e2
:1012c0003c00be002c01be00f10007000205be007c
:1012d0000004be008d06e900ffb19700030278000c
:1012e000cfa2de0005037800860378000800be0068
:1012f0000a01be006f0107003fb2970000005200d4
:101300008fb8970060cf7800089ebe000a96be0096
:101310000e07e9003c00be002c01be00b0b79f00e4
:10132000c1b79f00d2b79f00e3b79f00e00f500006
:10133000e08f5800e00f5900e08f590002003400a0
:101340000d00e000d9ff3c00ffb09700e88f50008f
:1013500010003a000c1090000038a3000d0032007d
:10136000f78f560006003e00e2fc2f000d01410001
:10137000e2c07f0000c3b30080cf50000500320000
:101380008d06e90000c3b300e3fc2f008d8141000e
:1013900080f17f0078811600120e98006c0090009a
:1013a000e3fc2f008f8141008d8041008afc070003
:1013b0001c0990005c089000800f510006003d0061
:1013c00002005000000e98000c1090000040a10098
:1013d000001698000f0037000000e0000d003d00ef
:1013e0000c10900074006000f00f500009003a00eb
:1013f0007c089000fc009000010050008c089000d8
:1014000001005000020050004240a90001003400d9
:10141000000e98004f0778004f06be004f05be0033
:101420004f04be006f02b100000006008201780088
:101430000400370090cf1000050032000000e800e3
:101440008301e9000300e000faff3a000000eb002e
:1014500000000600881f7800000478005001be00dc
:101460004000be000000420081804a0002014b00a3
:1014700083814b00009cbe000294be000400e1008a
:101480000588e1000690e1000798e10002003100c4
:10149000680044001008e8004f04780000000600cf
:1014a000f4874700889fbe008a9fbe008c9fbe00c5
:1014b0008e1f78000205be000004be00d4b79f0056
:1014c000e5b79f00f6b79f0087bf9f000000eb00c5
:1014d000c0b79f00b0b79f00a0b79f0090b79f0014
:1014e00080b79f000d042000bfb097004fb0970059
:1014f000000140000000e00014003d004f08de0045
:1015000000007100c0b79f00ad00070001003d0062
:1015100012002000b000070001003d001200200072
:10152000b500070001003d0012002000ba000700ce
:10153000be000700feff3a00c2000700c800070017
:101540000f004000c3ff0700270037004f08de00f0
:1015500000067100ccb79f009900070001003d0014
:10156000120020009c00070001003d001200200036
:10157000a100070001003d0012002000a6000700a6
:10158000aa000700feff3a00ae0007000fb2970066
:101590009fb297002fb39700bfb39700b600070024
:1015a0000000520081805a0002015b0083815b00d1
:1015b00080b79f0091b79f00a2b79f00b3b79f006d
:1015c0000007eb00ac0007000020e10001a8e100eb
:1015d00002b0e10003b8e100010031001e0020006c
:1015e0000e005600c0b79f004fb297000400e00005
:1015f0000700350010002000010020006011b80035
:1016000008047000898470000a0571008b857100e0
:101610008d06e900b4ff3a000400e00003003d003d
:101620008f0007000f0040008aff07004fa89700b7
:101630000000e00004003a000fb497009fb4970048
:101640002fb59700bfb59700970007004f077800a8
:101650004f06be004f05be004f04be004f01b10053
:1016600000000600881f780018002000881f7800fe
:101670008bff07008f87e9004f0478000000060009
:10168000801feb0086ff07008f87e900000006003f
:10169000889fbe008a9fbe008c1f78007b000700d9
:1016a00005003d002f00070007003d003d0007003a
:1016b0000006eb00040037003f00070002003d0079
:1016c000300007001c00200077000700e5ff07003e
:1016d0000203be000002be000c00e0000100320068
:1016e000280007000400be000601be004f06780077
:1016f0004f05be004f04be0000000600889fbe00dc
:101700008a9fbe008c1f78006000070003003d0028
:101710001400070006003d00040037002600070003
:1017200003003d006000b8006011b8001d00070014
:101730005d000700d2ff07000203be000002be00ea
:101740000c00e000010032000e0007000400be00a3
:101750000601be004f0678004f05be004f04be00d4
:10176000000006006000b8006011b80008045000d6
:10177000898458000a0559008b8559001c002000f7
:10178000030037006000b8006011b80005003700a2
:10179000e00f5200e08f5a00e00f5b00e08f5b002b
:1017a000000006000402500085825800060359001c
:1017b00087835900000006000006eb00f4ff3700a5
:1017c0000180400090b79f000001eb008fb09700b0
:1017d0000100e000000006000200700090b79f00ca
:1017e0000180400080b79f000001eb00ffa8970038
:1017f0000100e000000006000200700080b79f00ba
:1018000001804000f0af9f000001eb00efa89700bf
:101810000100e0000000060002007000f0af9f0031
:101820000182400020000700f50305008301d1007c
:101830000281d3008180d3000080d3008502e900bb
:101840000000060000027200e4af9f00080444009c
:1018500089844c000a054d008b854d000000060070
:101860003fb29700cfb297005fb39700efb39700f6
:1018700000fe2f00000006003fb09700cfb0970099
:101880005fb19700efb19700000006000205be00af
:101890000004be00e00f5000e08f5800e00f590038
:1018a000e08f5900000006000800be000a01be00db
:1018b00000000600889fbe008a9fbe008c1f780033
:1018c0000205be000004be000006eb00e00f500061
:1018d000e08f5800e00f5900e08f590007003d00ed
:1018e0006000b8006011b8000804500089845800f6
:1018f0000a0559008b8559001c002000e00f52009a
:10190000e08f5a00e00f5b00e08f5b0002003d00bb
:101910000f0007000c00a2000800be000a01be0074
:10192000120007000203be000002be000c00e0002f
:1019300001003200060007000400be000601be00e0
:101940004f0678004f05be004f04be0000000600a1
:101950006000b8006011b800040250008582580091
:10196000060359008783590000000600889fbe00c7
:101970008a9fbe008c9fbe000404b8000506b80014
:101980008904460060854e000606b8000a05460038
:10199000e0854e000706b8008b054600040eb8002f
:1019a000890446000a854e00e0854d00050eb8000a
:1019b0000a0546008b854e00060eb8008b054600d2
:1019c0000416b8000a0546008b854e000516b800bf
:1019d0008b054600041eb8008b0546000800be00bb
:1019e0000a01be004f06be004f05be004f04be00f8
:1019f000000006000200fa000000eb00000f780073
:101a00000000eb00000f7800010037001e0fe80017
:101a1000f0e124009e0f1000fcff34000080fa006b
:101a2000000006000200fa00004f780033c2bf0039
:101a3000624060000004e000fcff3a001e00fb0072
:101a4000a01188000080fa00000006000400fa00df
:101a5000100798000000eb00000f78000700370027
:101a60001e007800800078001e009000008040007a
:101a700010407800ebff07001e0fe8001e00780002
:101a8000800078001e009000008040001040780028
:101a90000004e000f2ff3a000080fa0000000600b7
:101aa0000200fa0032c2bf00614060000004e000a2
:101ab000fcff3200b0118000004f78001e00fb00d8
:101ac0000080fa00000006000600fa00881f780077
:101ad000200798000000eb0010079800100020007d
:101ae000000f7800160037009e0090002e00900036
:101af00000844000eaff0700004c78009e00900040
:101b00002e0090000080400010407800ea4f500006
:101b100008003a000000eb00000f78009e009000e3
:101b20002e009000008040008000e8000040eb00a4
:101b3000804878001e0090000000e8001007980020
:101b40001e00e000e8ff3a004f0478000080fa0031
:101b5000000006000400fa00000f7800110798004a
:101b6000d4c2bf000080fb004600de006140600080
:101b70008080fb001e00900010007800808f5000d5
:101b800016003200d4c2bf000080fb004600de0019
:101b9000614060008080fb001e009000010878001a
:101ba000d4c2bf000044b2000004e0000b003a00c1
:101bb0001e007800100078000000e00004003200f1
:101bc0009e0078000000eb008008780003003700da
:101bd0009e00780010002000800878000080fa0045
:101be000000006000600fa00000f780011079800b8
:101bf0001e00780090007800d4c2bf000080fb0077
:101c00004600de00614060000080fb00808f5000d5
:101c100006003a001e009000100078008000e800e6
:101c20001e00900001087800030037009e0090001d
:101c30000000eb0080087800d4c2bf000080fb00e9
:101c40004600de00614060008080fb001e007800de
:101c5000010878001e00900010007800e30f50008b
:101c600006003a009e0090000000eb00800878001b
:101c70001000200020079800020037000000eb0051
:101c8000200798002e0090000080fa000000060057
:101c90000000fa00c402a800c422a9000080fa00d3
:101ca000000006000000fa00c402a900c422a80037
:101cb0000080fa00000006000000fa00c402a9003b
:101cc000c422a9000080fa00000006000600fa0005
:101cd000000f7800110798001e0090000000e0003f
:101ce000140032001e007800200798002e0090009b
:101cf000e10f50000a0032002e009000e20f500069
:101d00000a0032002e0090000000e00001003200c6
:101d100008003700c02e29004cff070005003700df
:101d20000030290049ff0700020037002031290058
:101d300046ff07000080fa00000006000c00fa00d1
:101d4000000f7800110798002207980033079800c9
:101d500044079800550798002e0090009e0f100031
:101d600011003d009e0090002e009000808f5000da
:101d70000d003d00d0ff07004e00900010007800dd
:101d80000000e00038003200ce0090000000eb00c0
:101d9000800878004e00900010007800de0090006f
:101da000caff0700300037001e0090009e00500060
:101db0003e009000808f50000d003400b4ff0700fb
:101dc0004e00900010007800e10f50002600320015
:101dd000ce00900010002000800878004e00900097
:101de00010007800de009000b8ff07001e003700ea
:101df0001e0090009e0010003e009000808f50005a
:101e00000d003400a7ff07004e009000100078007e
:101e1000e20f500014003200ce009000200020009d
:101e2000800878004e00900010007800de009000de
:101e3000a6ff07000c0037009fff07004e00900030
:101e4000100078000000e00007003200ce00900093
:101e50000000eb00800878004e0090001000780031
:101e6000de00900099ff07000080fa0000000600e5
:101e70000400fa00000f7800110798008eff070099
:101e80001e007800100078000000e000070032001b
:101e90009e0078000000eb00800878001e007800ab
:101ea000100078009e00900088ff07000080fa0074
:101eb000000006000600fa00881f7800200798003e
:101ec0000000eb00000f78000000eb001007980006
:101ed0000f0037001e0078006a00b900000178008a
:101ee0001e009000800078002e00900000804000ce
:101ef000104078000000fb008000410000fd2f0032
:101f0000008f40001e0090000000e80010079800bd
:101f10001e0490002e0090007bf907000000e900ed
:101f2000800f5400ebff39001e0078004f0478004a
:101f30000080fa00000006002c00fa00401798000c
:101f4000511798005e109000801f78004e1090008e
:101f5000801f780030322900801f78000e00780042
:101f600076f90700e68757000e007800b7fe0700f5
:101f70000080fa00000006000000fa00303429005a
:101f8000b2fe07000080fa00000006002a00fa00f6
:101f9000401798004e109000801f780010352900df
:101fa000801f78000e00780064f90700e48757006e
:101fb0000e007800a5fe07000080fa000000060071
:101fc0000200fa00000f78001e0078004019880017
:101fd0002023a80087fe07002023a90020c3bf00fc
:101fe000614060000004e000fcff32000018800047
:101ff0000080fa00000006001400fa00881f780034
:1020000010079800210798003207980043079800ae
:10201000540798006507980076079800070f980006
:102020000e089000100078000000e00045003a0023
:10203000813629001e00900051f907000000e000e1
:10204000040032008e089000100020008008780004
:10205000b4003700e13629001e00900048f907005f
:102060000000e000040032008e08900020002000f4
:1020700080087800ab003700413729001e0090002f
:102080003ff907000000e000040032008e089000d5
:102090003000200080087800a2003700a137290016
:1020a0001e00900036f907000000e0000400320036
:1020b0008e089000400020008008780099003700ca
:1020c000013829001e0090002df907000000e000f3
:1020d000040032008e089000500020008008780034
:1020e00090003700613829001e00900024f9070095
:1020f0000000e000040032008e0890006000200024
:102100008008780087003700c13829001e00900041
:102110001bf907000000e000040032008e08900068
:1021200070002000800878007e0037008e08900044
:102130000000eb00800878002039290043fe0700ea
:1021400078003700913a29001e0090000cf9070032
:102150000000e0006e0032000e08900010007800d1
:10216000100f98001e089000e40f50003a00320053
:102170001e089000e40f50000a003c001e0890006a
:10218000e20f50001a0032001e089000e20f5000cb
:1021900020003c001e089000e10f50000b003200b0
:1021a000580037001e089000e60f5000460032002d
:1021b0001e089000e60f5000380035001e08900001
:1021c000e70f5000470032004e0037007e009000bd
:1021d000900078002e009000010878008e08900092
:1021e0000000eb008008780063ff07004d00370017
:1021f0007e009000900078003e009000010878007a
:102200008e0890000000eb00800878005aff07005d
:10221000440037007e009000100f7800100020006e
:102220009e0f1000020032001e00e00004003a0081
:102230004e0090001e0878004fff07000200370094
:10224000c03a290001fe07008e0890000000eb0054
:1022500080087800330037007e009000100f78006f
:10226000100020009e0f1000020032001e00e0004f
:1022700004003a005e0090001e0878003eff070050
:1022800002003700c03a2900f0fd07008e089000d8
:102290000000eb0080087800220037008e089000d4
:1022a0000000eb00800878003000200044ff0700a9
:1022b000000478002000200041ff0700880078001b
:1022c0001dff070017003700500020003cff0700eb
:1022d0002eff07008e0890000000eb0080087800b9
:1022e000100037007e009000900078006e00900093
:1022f000010878008e0890000000eb00800878004c
:102300000800370020392900d0fd070005003700fc
:102310001e009000e7fe0700800078007e0090001d
:10232000010878004f0478000080fa0000000600e1
:102330000000fa0030fd2f00601988000000eb005b
:10234000001988000000eb00801988000000eb00f5
:1023500010198800200020002019880021e3a8001f
:102360000080fa00000006000000fa009001200042
:10237000c01188000000eb009011880000002800c8
:10238000801188003342a8000080fa000000060097
:102390003e00fa00889fbe008a9fbe00f2ff070041
:1023a000e3ff0700d2c2a800c002a900c022a90012
:1023b000c042a900c062a900303c2900104f78003b
:1023c00090409000114798000e80e8006011b8001e
:1023d0000288be00640040006011b8000288be00a0
:1023e000640040006011b8000288be006400400034
:1023f0006011b8000288be00640040006011b8009f
:102400000288be00640040006011b8000288be006f
:10241000640040006011b8000288be006400400003
:102420006011b8000288be00640040006011b8006e
:102430000288be00640040008000eb0001087800c4
:10244000100020004017980010002000501798003e
:102450000000eb00601798000000eb007017980078
:1024600040062000001f9800800c2000101f9800dc
:1024700010002000201f980000322000301f98001c
:102480000000eb00401f98000000eb00501f980078
:102490000000eb00601f98000000370032c2bf0050
:1024a000614060000004e000170032000e00780078
:1024b00085fd0700a70320008e834300c003200092
:1024c0000e004000610320008e8040004203200087
:1024d0000e014100830320008e814100080320008b
:1024e0000e044400290320008e8444000003780079
:1024f00081027800020278000801780089007800e3
:102500000e007800bcfe070050002000acfe070063
:10251000800078003e189000808f50000300340047
:1025200010002000401f98000c003700c10220005e
:102530008e804000800220000e004000a9fd0700b0
:102540000000e00005003200a10220008e80400063
:10255000800320000e0040007efd07004e18900012
:102560000000e00007003200c442a900c462a800d5
:10257000ae189000e00220000e0040003cfe070074
:10258000c6ff3700c442a800c462a9002e1c9000f8
:102590001e1d90008e1d90003000200088fe070058
:1025a000800478002000200085fe070000037800ea
:1025b000e00220000e00400088027800000278004f
:1025c0008a0178000b017800890078000600780005
:0825d000dafd0700b1ff37003e
:020000040000fa
:020000040002f8
:04aff800befa00009d
:020000040000fa
:020000040002f8
:04affc007fbf000013
:020000040000fa
:100008002a1400002a1400002a1400002a140000f0
:100018002a1400002a1400002a1400002a140000e0
:100028002a1400002a1400002a1400002a140000d0
:100038002a1400002a1400002a1400002a140000c0
:020000040000fa
:020000040000fa
:1025d8003c6d00006f7400003e530000746f0000f3
:1025e80070700000656400003c6d00006f740000ae
:1025f8005c3e00000a0000003c6d00006f740000a3
:102608003e52000069670000687400003c6d0000dd
:102618006f7400005c3e00000a0000003c6d000082
:102628006f7400003e4c000065660000743c0000ba
:102638006d6f0000745c00003e0a0000003c000062
:10264800766100006c3e00000a0900004c6500003d
:10265800667400003a2500006420000052690000fa
:1026680067680000743a0000256400000a3c000016
:102678002f760000616c00003e0a0000003c00005c
:10268800616300006b3e00000a3c00002f610000ff
:10269800636b00003e0a0000003c00007661000009
:1026a8006c3e00000a090000546500006d700000cf
:1026b8003a250000640a00003c2f00007661000003
:1026c8006c3e00000a0000003c6c0000696d0000d0
:1026d8003e0000003c6d0000696e00003e000000f6
:1026e8003c6d00006f6400003e0000003c6d00007f
:1026f8006f6e00003e0000003c730000656e000035
:102708003e0000003c7400006d7000003e000000b8
:102718003c6d0000787400003e0000003c7700002b
:10272800726e00003e0a0000094500007272000047
:102738006f720000203100000a3c00002f77000073
:10274800726e00003e0a0000003c00002f000000ee
:102758003c770000726e00003e0a00000945000048
:10276800727200006f720000203200000a3c000004
:102778002f770000726e00003e0a00000000000083
:102788000000000000000000000000000000000041
:102798000000000000000000000000000000000031
:1027a8000000000000000000000000000000000021
:1027b8000000000000000000000000000000000011
:1027c8000000000000000000000000000000000001
:020000040000fa
:1027d80022080000120000000200000001000200b0
:1027e800000400000800100000000000202b2d004d
:1027f8002330000034080000080000000200000038
:10280800686a6c00747a4c00000000000008000040
:10281800220000000200000030313200333435005d
:10282800363738003961620063646500660030003d
:1028380031323300343536003738390041424300ed
:0c284800444546000000000000000000b5
:020000040000fa
:042854000000fe0082
:00000001FF
